S020000074727573747A6F6E655F63616E5F656B5F7261346D335F732E737265636E
S3150000000098070020811A0000811600007D1A000062
S315000000107D1A00007D1A00007D1A00007D1A00007E
S315000000200000000000000000000000007D1A000033
S315000000307D1A0000000000007D1A00007D1A0000F5
S31500000040F1100000C9110000DD120000C911000006
S31500000050DD120000000000000000000000000000AB
S31500000060000000000000000000000000000000008A
S31500000070000000000000000000000000000000007A
S31500000080000000000000000000000000000000006A
S31500000090000000000000000000000000000000005A
S315000000A0000000000000000000000000000000004A
S315000000B0000000000000000000000000000000003A
S315000000C0000000000000000000000000000000002A
S315000000D0000000000000000000000000000000001A
S315000000E0000000000000000000000000000000000A
S315000000F000000000000000000000000000000000FA
S3150000010000000000000000000000000000000000E9
S3150000011000000000000000000000000000000000D9
S3150000012000000000000000000000000000000000C9
S3150000013000000000000000000000000000000000B9
S3150000014000000000000000000000000000000000A9
S315000001500000000000000000000000000000000099
S315000001600000000000000000000000000000000089
S315000001700000000000000000000000000000000079
S315000001800000000000000000000000000000000069
S315000001900000000000000000000000000000000059
S315000001A00000000000000000000000000000000049
S315000001B00000000000000000000000000000000039
S315000001C0FFFFFFFFFFFFFFFFFFFFFFFFFFFFFFFF39
S315000001D0FFFFFFFFFFFFFFFFFFFFFFFFFFFFFFFF29
S315000001E0FFFFFFFFFFFFFFFFFFFFFFFFFFFFFFFF19
S315000001F0FFFFFFFFFFFFFFFFFFFFFFFFFFFFFFFF09
S315000002000348044B834202D0034B03B1184770479F
S315000002103C0100203C01002000000000064B07497D
S31500000220C91A891048BF0131491003D0044B0BB1DC
S3150000023001481847704700BF3C0100203C010020E0
S315000002400000000010B5064C237843B9FFF7D8FF2D
S31500000250044B13B10448AFF300800123237010BD93
S3150000026058010020000000007C1E000008B5054B68
S315000002701BB105490548AFF30080BDE80840FFF70C
S31500000280CDBF00BF000000005C0100207C1E000006
S3150000029008B51C491C4800F0BFFDBDE80840714682
S315000002A072467346B7EE000AF7EE000AB7EE001A7A
S315000002B0F7EE001AB7EE002AF7EE002AB7EE003A7C
S315000002C0F7EE003AB7EE004AF7EE004AB7EE005AEC
S315000002D0F7EE005AB7EE006AF7EE006AB7EE007A5C
S315000002E0F7EE007A8EF3008C10B4F1EE10CA4FF6DA
S315000002F06074C0F6FF740CEA040CE1EE10CA10BC80
S31500000300F4467447341D00009401002008B51C48CB
S3150000031000F0F0FBBDE80840714672467346B7EE42
S31500000320000AF7EE000AB7EE001AF7EE001AB7EE6B
S31500000330002AF7EE002AB7EE003AF7EE003AB7EEDB
S31500000340004AF7EE004AB7EE005AF7EE005AB7EE4B
S31500000350006AF7EE006AB7EE007AF7EE007A8EF3DF
S31500000360008C10B4F1EE10CA4FF66074C0F6FF743C
S315000003700CEA040CE1EE10CA10BCF446744700BF48
S315000003809401002010B510460C460222142101F0FB
S31500000390E7FBC8B3024621461C4800F0F5FCBDE861
S315000003A01040714672467346B7EE000AF7EE000A31
S315000003B0B7EE001AF7EE001AB7EE002AF7EE002A9B
S315000003C0B7EE003AF7EE003AB7EE004AF7EE004A0B
S315000003D0B7EE005AF7EE005AB7EE006AF7EE006A7B
S315000003E0B7EE007AF7EE007A8EF3008C10B4F1EED9
S315000003F010CA4FF66074C0F6FF740CEA040CE1EE06
S3150000040010CA10BCF44674470120C8E794010020C6
S3150000041010B510460C460222142101F0A1FBC8B308
S31500000420024621461C4800F0BBFBBDE81040714661
S3150000043072467346B7EE000AF7EE000AB7EE001AE8
S31500000440F7EE001AB7EE002AF7EE002AB7EE003AEA
S31500000450F7EE003AB7EE004AF7EE004AB7EE005A5A
S31500000460F7EE005AB7EE006AF7EE006AB7EE007ACA
S31500000470F7EE007A8EF3008C10B4F1EE10CA4FF648
S315000004806074C0F6FF740CEA040CE1EE10CA10BCEE
S31500000490F44674470120C8E79401002008B51C48BB
S315000004A000F05AFCBDE80840714672467346B7EE46
S315000004B0000AF7EE000AB7EE001AF7EE001AB7EEDA
S315000004C0002AF7EE002AB7EE003AF7EE003AB7EE4A
S315000004D0004AF7EE004AB7EE005AF7EE005AB7EEBA
S315000004E0006AF7EE006AB7EE007AF7EE007A8EF34E
S315000004F0008C10B4F1EE10CA4FF66074C0F6FF74AB
S315000005000CEA040CE1EE10CA10BCF446744700BFB6
S3150000051094010020084608B50222142101F020FBB0
S31500000520C0B301461C4800F03DFBBDE808407146DB
S3150000053072467346B7EE000AF7EE000AB7EE001AE7
S31500000540F7EE001AB7EE002AF7EE002AB7EE003AE9
S31500000550F7EE003AB7EE004AF7EE004AB7EE005A59
S31500000560F7EE005AB7EE006AF7EE006AB7EE007AC9
S31500000570F7EE007A8EF3008C10B4F1EE10CA4FF647
S315000005806074C0F6FF740CEA040CE1EE10CA10BCED
S31500000590F44674470120C8E79401002070B5084668
S315000005A01646042102221D4601F0DAFA68B1044615
S315000005B002222821284601F0D3FA034628B1324602
S315000005C021461D4800F0CEFB00E00120BDE870404A
S315000005D0714672467346B7EE000AF7EE000AB7EEAA
S315000005E0001AF7EE001AB7EE002AF7EE002AB7EE69
S315000005F0003AF7EE003AB7EE004AF7EE004AB7EED9
S31500000600005AF7EE005AB7EE006AF7EE006AB7EE48
S31500000610007AF7EE007A8EF3008C10B4F1EE10CA71
S315000006204FF66074C0F6FF740CEA040CE1EE10CAD3
S3150000063010BCF446744700BF940100202DE9F04732
S315000006403349344800F0E8FB002843D132490B789F
S3150000065003F0FF0E002B39D14FF0010C4FF040098B
S3150000066041F288364FF080082C4B2D4D2D482E4CEC
S315000006702E4FEFF3108A8CF310881A6812B9427164
S3150000068080F805901A6801321A608AF310880A7891
S3150000069042B181F800E0D4F810213A4042F0040259
S315000006A0C4F810212E60EFF3108A8CF310881A68B4
S315000006B012B11A68013A1A601A6812B9427180F8C2
S315000006C005808AF310880A78002AD2D0BDE8F04760
S315000006D001F0ECB8EFF31081012383F310880F4B80
S315000006E01A681AB940240F48427144711A680132D7
S315000006F01A6081F310880C4AD2F8003123F00113F6
S3150000070023F4404343F00403C2F800319EE700BFE0
S31500000710341D0000940100208901002004020020FD
S3150000072000000020000D084000080840FE3FFEFFC4
S315000007301D4B1B7803F0FF001BB11C4B187B303898
S31500000740C0B2714672467346B7EE000AF7EE000A6B
S31500000750B7EE001AF7EE001AB7EE002AF7EE002AF7
S31500000760B7EE003AF7EE003AB7EE004AF7EE004A67
S31500000770B7EE005AF7EE005AB7EE006AF7EE006AD7
S31500000780B7EE007AF7EE007A8EF3008C10B4F1EE35
S3150000079010CA4FF66074C0F6FF740CEA040CE1EE62
S315000007A010CA10BCF4467447890100207401002069
S315000007B08388B3F5806F2BD006D9B3F5006F08D1C7
S315000007C001221D4B1A707047202B18D8012B0ED80A
S315000007D07047FDD3B3F5005F05D0B3F5804F02D067
S315000007E0B3F5805FF4D10122144B1A707047144A96
S315000007F0023B9BB222FA03F3DB07F4D47047B3F54E
S31500000800807FF0D0B3F5007FEDD0802BE0D1EAE712
S3150000081010B584464FF0010E0A4B4069DCF81810FB
S31500000820DCF81C20084C83F800E0DCF820300FC40C
S31500000830DCF82400206010BD8A0100208801002019
S31500000840454000408901002074010020022800D0A4
S3150000085070470249024800F043B900BF6C1D000012
S315000008608C0100207046714672467346B7EE000A48
S31500000870F7EE000AB7EE001AF7EE001AB7EE002AF6
S31500000880F7EE002AB7EE003AF7EE003AB7EE004A66
S31500000890F7EE004AB7EE005AF7EE005AB7EE006AD6
S315000008A0F7EE006AB7EE007AF7EE007A8EF3008C68
S315000008B010B4F1EE10CA4FF66074C0F6FF740CEA7D
S315000008C0040CE1EE10CA10BCF446744708B5FFF7F5
S315000008D0B5FE002008BD00BF4FF0FF334FF6FF62A4
S315000008E04FF0010C10B487B01649CDE90333CDE9BA
S315000008F0013301F13004ADF80620ADF814308B89D0
S3150000090006A81A0A00EB420232F8140CDBB20831D0
S315000009100CFA03F320EA03038C4222F8143CEED1CE
S315000009200023094C0DF1020203F1080132F8020F0F
S315000009300133092B24F81100F6D107B05DF8044BFA
S31500000940704700BF741D0000000D08402DE9F84FE8
S315000009500388DBB182464FF0000B4FF00109DFF848
S31500000960D0800024304D4FEACB07DAF8043035F852
S31500000970022BD919898891420AD00134032CF4D16B
S31500000980BAF800300BF1010B5B45EAD8BDE8F88FE9
S31500000990DB5909FA04F603F0B853B3F1807FF6B2D7
S315000009A098F8BB3413D0334231D1204A04F12006E3
S315000009B012F81630DB09E0D012F8163001216FF379
S315000009C0C713C82002F8163000F02EFED5E73342D2
S315000009D011D0164A04F1200112F81130DB09CCD1EE
S315000009E012F81130C82043F0800302F811300121BB
S315000009F000F01AFEC1E7012000F02EFF98F8BB3484
S31500000A000120334388F8BB3400F0F6FEE1E701200D
S31500000A1000F022FF98F8BB34012023EA060388F889
S31500000A20BB3400F0E9FEC0E76C1E00000030084051
S31500000A3000E00140F8B50446FFF788FFEFF31082A7
S31500000A40012383F31088234F3B681BB922494B715E
S31500000A5040234B713B6801333B6082F31088238847
S31500000A602BB361681D4C01EBC30E06E01B01083178
S31500000A7013448E4544F8230019D008688A88C503B4
S31500000A804FEA1223D2B2F1D502EB031C54F82C60C4
S31500000A901B01083120F480356FF3104613448E4550
S31500000AA044F82C6044F82C5044F82300E5D1EFF3C9
S31500000AB01082012383F310883B6813B13B68013B26
S31500000AC03B603B681BB9802003494B71487182F338
S31500000AD01088F8BD04020020000D084000080840F8
S31500000AE008B5034B03600846FFF7A4FF002008BDC6
S31500000AF054524F5002460020012310B411689060F2
S31500000B0091F91510244C4FEA511C01F01F0103FA0C
S31500000B1001F10CF1200C44F82C10BFF34F8FBFF3FA
S31500000B206F8F116891F916104FEA511C01F01F01E1
S31500000B3003FA01F10CF1200C44F82C10BFF34F8F8F
S31500000B40BFF36F8F116891F917104FEA511C01F02E
S31500000B501F0103FA01F10CF1200C44F82C10BFF32D
S31500000B604F8FBFF36F8F516881F84C08C1F82C0482
S31500000B70EFF3108483F310881168084A0968C1F1FD
S31500000B8002018B4051680B435360536884F310880D
S31500000B905DF8044B704700BF00E100E000400840EC
S31500000BA00620704703465B680020B3F8422893F896
S31500000BB04EC892B281F80DC093F84FC80A6081F80A
S31500000BC00CC093F8502802F07F0282F07F0C0A6175
S31500000BD083F850C8704700BFF0B5076A06468DB067
S31500000BE0002F5AD0BE468C46BEE80F003D4602ACEA
S31500000BF00FC4BEE80F000FC49EE8030084E803009C
S31500000C00BCE80F000FC5BCE80F000FC59CE8030049
S31500000C108EE80300F369DA0714D538469847336A35
S31500000C2073B19C460DF1080EBEE80F00ACE80F004C
S31500000C30BEE80F00ACE80F009EE803008CE8030056
S31500000C400DB0F0BD01933846019C6408640021464E
S31500000C5022462346B7EE000AF7EE000AB7EE001A60
S31500000C60F7EE001AB7EE002AF7EE002AB7EE003AC2
S31500000C70F7EE003AB7EE004AF7EE004AB7EE005A32
S31500000C80F7EE005AB7EE006AF7EE006AB7EE007AA2
S31500000C90F7EE007A00F0D6FFC1E70F46BAE700BFCD
S31500000CA0437B10B49342446854D04FF0020CB4F81E
S31500000CB040386FF38A23A4F84038B4F840386CF310
S31500000CC00923A4F84038B4F8423803F4E063B3F5D6
S31500000CD0007FF8D1022384F858284273037399429F
S31500000CE015D0052916D0B4F840380A026FF38A23C6
S31500000CF0A4F84038B4F8403861F30923A4F8403822
S31500000D00B4F8423803F4E0639342F9D101735DF815
S31500000D10044B70470222B4F840386FF38A23A4F8D4
S31500000D204038B4F8403862F30923A4F84038B4F8E0
S31500000D30423803F4E063B3F5007FF8D1B4F84038E5
S31500000D4043F48063A4F84038B4F842385B05FBD519
S31500000D500173DCE7037BC2E708B5FFF7A1FF0020BC
S31500000D6008BD00BFF8B50C46174605460222042109
S31500000D7020461E4600F0F4FE08B124F001040020CF
S31500000D80C5E90867EC61F8BD436870B503EB010E71
S31500000D909EF820C85FEADC1C2FD100681468006941
S31500000DA01679007B557908BB1A4800EA8440203141
S31500000DB00C0140EA8570185103EB011C02F10C008E
S31500000DC09179BCF80420063461F303022344ACF89D
S31500000DD0042031B1194410F8012B03F8012B994274
S31500000DE0F9D1802300208EF8203870BD022807D064
S31500000DF024F0604444EA0C00D9E74EF6632070BD47
S31500000E00002ED1D0A6F10106B6FA86F676094FEA8B
S31500000E10C67CEDE70000FC1F2DE9F04F0C680D695C
S31500000E2004F58024A83424030E46074683B04460A4
S31500000E30EFF3108E012181F31088A64A3368D2F8A9
S31500000E4004C0C3F1020301FA03F32CEA030353605F
S31500000E5053688EF310884FF00008B3680660C361CC
S31500000E60F3684246C0E9088395F8009080F8189028
S31500000E70FFF716FFD6F804C0297DDCF80830DCF849
S31500000E800420013BDCF80CE0013A1B0243EA027342
S31500000E90DCF8002043EA09030EF1FF3C43EA0C3379
S31500000EA002F1FF3C2A7BC90041EA42018A4A41F429
S31500000EB0E07102EA0C421343A4F8401842460221AC
S31500000EC0C4F84438FFF7ECFE80234FF4007284F830
S31500000ED05038A018414600F0E3FE42462B69A86848
S31500000EE0DFF8F8E10AE093420DD804EB020C013278
S31500000EF0202A8CF8201800F1080024D081790029D6
S31500000F00F1D00021F1E795F80C80036890F8049081
S31500000F1090F805C0B8F1000F12D0B8F1020F0BD04F
S31500000F2023F060430B4302F1200143EA8C7309016D
S31500000F3063502B694021D8E7B9F1000F40F0BD801E
S31500000F400EEA8343EFE79B0800F0C0800022696841
S31500000F506FF06048A1F1040C4FF00F0B11460CEB3B
S31500000F60830301965CF8040F4FEA820E40450FD2C8
S31500000F7095F80CA002F58079BAF1000F02D1574E10
S31500000F8006EA80400BFA0EFE44F8290041EA0E01FB
S31500000F90634502F10102E5D1C943019E0022C4F86E
S31500000FA0281438461146FFF77BFEB4F8403843F064
S31500000FB02003A4F84038B4F84038C3F340109B0629
S31500000FC0F9D4317D96F91530DFF81CC1DFF81CE144
S31500000FD00901434A0CEB0305C9B285F8001303F176
S31500000FE0C0014EF8237052F8215060F3104542F8C4
S31500000FF0215052F82110BFF35F8F0125590989004E
S3150000100003F01F0301F1604101F5614105FA03F3A5
S31500001010C1F880310B60317D96F9163009010CEB71
S315000010200308C9B288F8001303F1C0014EF8237013
S3150000103052F8218060F3104842F8218052F82110BE
S31500001040BFF35F8F5909890003F01F0301F1604167
S3150000105005FA03F301F56141C1F880310B60337D78
S3150000106096F917101B01DBB28C448CF8003301F1A2
S31500001070C0034EF8217052F8236060F3104642F820
S31500001080236052F82330BFF35F8F4B099B0001F0BA
S315000010901F0103F160438D4003F56143C3F880519E
S315000010A01D603E214FF0FF320E4B84F84C18C4F8F9
S315000010B02C24BB6003B0BDE8F08FA9F10109B9FA91
S315000010C089F94FEA59194FEAC97129E74FF0FF31FB
S315000010D064E700BF004008400000FF030000FC1F5B
S315000010E0006000404E41435200E100E0080200204B
S315000010F030B58BB0EFF30383103B304A5BB2C0339D
S3150000110052F823106FF3104142F8231052F823309F
S31500001110EFF303832A48103B5BB250F82350282292
S315000011200021684600F0BCFD00206C6894F84D383C
S3150000113084F84D08DBB2ADF80430B4F84218C1F3B8
S315000011400012C90638D543F02003ADF80430022357
S3150000115094F8532884F8533894F85238D2B203F0EE
S315000011601F0384F85328E11891F8202860F38202BF
S3150000117081F820282A686946126803936B6A284614
S3150000118004930092FFF728FDB4F84238DB0611D528
S315000011902B681A69127D6AB193F91530002B09DBA9
S315000011A001215A09074803F01F03403201FA03F3ED
S315000011B040F822300BB030BD1346DBE7006000403C
S315000011C00802002000E100E02DE9F0418AB0EFF3CB
S315000011D00383103B3E4A5BB2C03352F823106FF3D1
S315000011E0104142F8231052F82330EFF303854FF4F1
S315000011F080620021374B103D6FB253F8270005F08F
S31500001200FF05D0E90084ADF8042094F8533884F83B
S31500001210531894F85268DBB206F01F0606F1200256
S3150000122084F853381301E15854F803C0C1F38073AE
S315000012308DF81930D8F810301B7B43EADC7303F0C5
S3150000124001038DF81830002B3ED1C1F38A41059178
S3150000125004EB0212938803F00F03082B9C4628BF69
S315000012604FF0080C8DF81AC06BB100230DF11F0268
S3150000127004EB061E0EEB030191F8061201336345DB
S3150000128002F8011FF6D1D8F80030039600934423E4
S31500001290264486F820380023426A6946079304925A
S315000012A0FFF79AFCB4F84238DB070AD5002F08DBB3
S315000012B001226B09084905F01F054033AA4041F891
S315000012C023200AB0BDE8F08121F06041BFE700BFEE
S315000012D0006000400802002000E100E070B58AB01E
S315000012E0EFF30383103B234A5BB2C03352F823105B
S315000012F06FF3104142F8231052F82330EFF30383C3
S31500001300012600214FF4006C1B4A103B5BB252F8D9
S315000013102350D5E90034186894F8532884F85368A4
S3150000132094F85238D2B203F01F030393234484F88F
S31500001330532883F8201883F820186B6A00906946B2
S3150000134028460493ADF804C0FFF746FCB4F84238CB
S315000013509B070DD52B6893F91730002B08DB5A092C
S31500001360064903F01F039E4002F1400341F8236043
S315000013700AB070BD006000400802002000E100E0F5
S3150000138070B582B001901B4A01981B4B1B4D5269E8
S3150000139018600E681C68084629600A6064086400C4
S315000013A0214622462346B7EE000AF7EE000AB7EEBC
S315000013B0001AF7EE001AB7EE002AF7EE002AB7EE8B
S315000013C0003AF7EE003AB7EE004AF7EE004AB7EEFB
S315000013D0005AF7EE005AB7EE006AF7EE006AB7EE6B
S315000013E0007AF7EE007A00F02DFC2B681E6002B042
S315000013F070BD00BF3C010020C0010020BC010020E0
S31500001400064B074993F826001A6A51F82030C2F3B2
S3150000141002620449D3400B60704700BF00E0014000
S315000014203C01002090030020704700BFF8B54AF247
S31500001430035001234249434AA1F8FE03A2F80431AE
S31500001440B2F804319BB2002BFAD101204FF40045CB
S315000014504FF0090C3C4CDFF80CE13C4EC4F804E0BC
S31500001460DFF804E13649C4F80CE0394FA2F8000170
S31500001470384AB06030606261276091F82620A56026
S315000014802561086A54F82220334EC0F30260C24038
S31500001490326081F8133481F8A2C091F880341BB908
S315000014A091F88134990746D0254D95F88034002B64
S315000014B036D00022224B83F8812483F8802400232F
S315000014C01F4981F8323091F83C301A07FBD543F2B8
S315000014D0021000231A4A088581F82A3092F83C3017
S315000014E09B06FBD5012005231649F12581F81C0131
S315000014F01A49116282F8263092F82630106A54F89A
S315000015002310C0F30260C14000243160F0204FF484
S315000015102541134B1D731C721873A2F8FE13F8BDF8
S315000015200121C82085F8801400F07EF895F88034F3
S31500001530012BFBD1BDE74FF47A70FFF775FFBEE7CD
S3150000154000E0014000C001403C0100200070004066
S31500001550002D310100C2EB0B900300202112022165
S315000015600020004000127A0000366E0138B50025D2
S31500001570284C0121C82084F8285000F055F884F83A
S31500001580245094F82430002BFBD194F824302149C0
S3150000159043F0020384F8243091F82430C3F340006A
S315000015A09B07F9D41B4A81F8220092F8223003F0F7
S315000015B0FF00002BF9D192F84030164960F3C713AB
S315000015C082F8403091F84030DB09FBD191F84200B7
S315000015D0104A63F3C71081F8420092F84230DB09E3
S315000015E0FBD192F844000B4963F3C71082F844001C
S315000015F091F84430C3F3C014DB09F9D1012000F09F
S315000016002BF9054B012083F8BB44BDE8384000F0B8
S31500001610F3B800BF0030084000E00140A0F101002F
S315000016200028FBD1704700BF4FF47A7310B400FB5B
S3150000163001F1114C114A2468B2FBF4F2A1FB030438
S315000016403CB9B0FBF2F0800860B15DF8044BFFF7DF
S31500001650E5BF9200B1FBF2F1A1FB03132BB90846DB
S315000016600028F2D15DF8044B70474FF0FF3C5DF85F
S31500001670044B6046FFF7D2BF9003002000CA9A3B96
S3150000168070B500240A4B0B4EB3F84051ADB225FAA3
S3150000169004F3DB0704D556F82430E0B203B19847CB
S315000016A00134102CF3D1024BA3F8305170BD00BFAA
S315000016B000600040C401002010B584B001900C46C3
S315000016C002220421019800F04BFA0346022204216B
S315000016D02046039300F044FA019A039B9A4236D0BF
S315000016E0012004B0B7EE000ABDE81040714672460C
S315000016F07346F7EE000AB7EE001AF7EE001AB7EED9
S31500001700002AF7EE002AB7EE003AF7EE003AB7EEF7
S31500001710004AF7EE004AB7EE005AF7EE005AB7EE67
S31500001720006AF7EE006AB7EE007AF7EE007A8EF3FB
S31500001730008C10B4F1EE10CA4FF66074C0F6FF7458
S315000017400CEA040CE1EE10CA10BCF446744784425D
S31500001750C6D103982146FFF713FE0020C1E700BF5C
S3150000176030B5032085B000F077F84FF0FF311E4CFE
S31500001770002322460125CDE9011104F1C00E039193
S3150000178032F8020F590960B104A800EB810151F843
S315000017900C0C03F01F0C05FA0CFC20EA0C0041F8B7
S315000017A00C0C964503F10103EAD101990F4B104A3F
S315000017B003201167C3F8801202995167C3F8841297
S315000017C003999167C3F8881200F016F800230948B8
S315000017D003F1C00234F8021F0133602B40F82210D7
S315000017E0F6D105B030BD00BFAA1D000000E100E043
S315000017F00080004000600040EFF31081012383F376
S315000018001088124B33F8102092B22AB133F8102008
S31500001810013A92B223F8102033F810309BB293B9F4
S315000018200B4A10B4B2F8FE330A4C9BB234F81000DF
S3150000183043F4254323EA0003A2F8FE3381F310881C
S315000018405DF8044B704781F31088704788030020C9
S3150000185000E00140741E000030B4EFF31081012354
S3150000186083F310880E4A32F810309BB26BB90D4CD8
S315000018700D4DB4F8FE3335F810C09BB243EA0C03A5
S3150000188043F425439BB2A4F8FE3332F810300133FB
S315000018909BB222F8103081F3108830BC704700BF2D
S315000018A08803002000E00140741E000030B5344D6E
S315000018B083B06B680193013331D1324A4EF2FE7127
S315000018C01346019223F8201B83F38888019C640841
S315000018D064002046214622462346B7EE000AF7EE6C
S315000018E0000AB7EE001AF7EE001AB7EE002AF7EE76
S315000018F0002AB7EE003AF7EE003AB7EE004AF7EEE6
S31500001900004AB7EE005AF7EE005AB7EE006AF7EE55
S31500001910006AB7EE007AF7EE007A00F093F91A4AF9
S315000019202B68956083F38888019C640864002046D0
S31500001930214622462346B7EE000AF7EE000AB7EE26
S31500001940001AF7EE001AB7EE002AF7EE002AB7EEF5
S31500001950003AF7EE003AB7EE004AF7EE004AB7EE65
S31500001960005AF7EE005AB7EE006AF7EE006AB7EED5
S31500001970007AF7EE007A00F065F903B030BD00BFDB
S31500001980008000000020002000ED02E0704700BF4C
S315000019902DE9F8430320FFF75FFF022349F6F771AD
S315000019A02E4A4FF4254CC2F8D0306FF001064FF0A6
S315000019B0FF336FF002054AF201596FF07F484FF688
S315000019C0FE6E6FF00F07D068254C0840254901438D
S315000019D0D160D2F88C10244841F44061C2F88C10D2
S315000019E0416B224A41F0E05141632148C4F88061CD
S315000019F02049A4F80490A4F800C0A4F804C04560E7
S31500001A008360C360036143611B481360C1F8CC3334
S31500001A10C1F8CC33C1F8C003C1F8C833C1F8E0330C
S31500001A20C1F8D083A1F50051136456649364D3645E
S31500001A3013655365A1F840E115615761C2F830316D
S31500001A40C2F80031C2F80431FEF746FFFFF79EFFE9
S31500001A50BDE8F8430320FFF7CFBE00BF00ED00E06E
S31500001A60000E00400800FA0500EF00E0008000408C
S31500001A7000000E4000E0014002E4FCFF00BE70479B
S31500001A8008B500F003F8FEF721FFFEE74FF47002F9
S31500001A9070B5274B274CC3F88820274922680020B9
S31500001AA011609C60FEF7D2FEFFF7C0FC0120FEF736
S31500001AB0CDFE2368A3F5806383F30A881F48204A76
S31500001AC00021121A00F0ECF81E481F4A1F49121A8C
S31500001AD000F0EEF81E4D1F4B5B1B002B07DD0024AC
S31500001AE09E1055F8043B01349847A642F9DCFFF7EF
S31500001AF087FCFFF73BFD0320FFF7AEFE00234FF602
S31500001B00FF70154903F108020133092B21F8120071
S31500001B10F8D10320FFF770FEFFF73AFF0220FEF729
S31500001B2095FEFFF71DFEBDE87040002000F016B8D8
S31500001B3000ED00E000000000A5EDF5FE58010020D4
S31500001B4094030020000000203C010020A81E000095
S31500001B503401002038010020000D0840704700BF06
S31500001B6043186CD21F2A6AD8013902F014030144C3
S31500001B7000B580EA010C142B0ED8DFE803F03F0D08
S31500001B800D0D480D0D0D0D0D0D0D0D0D0D0D510D00
S31500001B900D0D10005B0300D400205DF804FBBCF1C2
S31500001BA01F0F40E8C0F304D99C4641E8C0F39C45AA
S31500001BB0F2D122F01402013A0A2AEDD801A151F815
S31500001BC022F000BFF71B0000391C0000F11B0000CB
S31500001BD0991B0000991B0000991B0000991B00002F
S31500001BE0951B0000F71B0000331C0000F11B0000D2
S31500001BF09A02D2D4D0E71A03CFD4CDE7BCF11F0F97
S31500001C0040E800F3D5D99C4641E800F3CFE7BCF1A4
S31500001C101F0F40E840F3CCD99C4641E840F3C6E7A5
S31500001C20BCF11F0F40E880F3C3D99C4641E880F31E
S31500001C30BDE7DB02B1D4AFE75902AED5ACE7002071
S31500001C40704700BF2DE9E04F2746A046A146A246B1
S31500001C50A346A4462DED108B4FF0000545EC185B0E
S31500001C6045EC195A45EC1A5A45EC1B5A45EC1C5AD8
S31500001C7045EC1D5A45EC1E5A45EC1F5AF1EE105A1A
S31500001C804FF66076C0F6FF763540E1EE105A84F3E3
S31500001C90008825462646A447BDEC108BBDE8E08F9C
S31500001CA002440346934200D1704703F8011BF9E74B
S31500001CB00A44431E914200D1704710B511F8014BFA
S31500001CC0914203F8014FF9D110BDFFFF4275696CCF
S31500001CD07420776974682052656E6573617320415C
S31500001CE06476616E63656420466C657869626C65CE
S31500001CF020536F667477617265205061636B61670C
S31500001D00652076657273696F6E20342E362E30002C
S31500001D10342E362E3000000000000604F8B500BF51
S31500001D20F8BC08BC9E467047F8B500BFF8BC08BCB6
S31500001D309E4670470100000024010020B107000004
S31500001D40000000004C1D000002000102000000001F
S31500001D500401002004000020000000002000000014
S31500001D600000000000000000000000000700000066
S31500001D70741D0000000001000801000000000100C1
S31500001D8009010000000001000A0100000000010036
S31500001D900003000004000000000400000000011021
S31500001DA009060000000001100A060000A600A900AE
S31500001DB0AA00A700A8000000000000000000000024
S31500001DC0000000000000000000000000000000000D
S31500001DD000000000000000000000000000000000FD
S31500001DE000000000000000000000000000000000ED
S31500001DF000000000000000000000000000000000DD
S31500001E0000000000000000000000000000000000CC
S31500001E1000000000000000000000000000000000BC
S31500001E2000000000000000000000000000000000AC
S31500001E30000000000000000000000000000000009C
S31500001E40000000000000000000000000000000008C
S31500001E50000000000000000000000000000000007C
S31500001E60000000000000000000000000020403045F
S31500001E700404FFFF0100020008001000100000002B
S31500001E8000000000017A5200027C0E011B0C0D00BE
S31500001E901000000018000000000000001000000004
S30D00001EA0000000000000000034
S31500001EA88813000000000000000101000100000086
S31500001EB8000000000200000000000000030000000F
S31500001EC800000000040000000000000005000000FB
S31500001ED800000000060000000000000007000000E7
S31500001EE800000000080000000000000009000000D3
S31500001EF8000000000A000000000000000B000000BF
S31500001F08000000000C000000000000000D000000AA
S31500001F18000000000E000000000000000F00000096
S31500001F280000000010000000000000001100000082
S31500001F38000000001200000000000000130000006E
S31500001F48000000001400000000000000150000005A
S31500001F580000000016000000000000001700000046
S31500001F680000000018000000000000001900000032
S31500001F78000000001A000000000000001B0000001E
S31500001F88000000001C000000000000001D0000000A
S31500001F98000000001E000000000000001F000000F6
S31500001FA800000000FFFFFF1FFFFFFF1FFFFFFF1FCF
S31500001FB8FFFFFF1FFFFFFF1FFFFFFF1FFFFFFF1FA3
S31500001FC8FFFFFF1F050000000E00000005000000CF
S31100001FD8040000006D020000450200003D
S315000020007FE97FE9FEF72EBC7FE97FE9FFF754BB46
S315000020107FE97FE9FEF77EBA7FE97FE9FEF788BBB5
S315000020207FE97FE9FEF7AEB97FE97FE9FEF76EB992
S315000020307FE97FE9FEF732BA7FE97FE9FEF728B943
S315000020407FE97FE9FEF7E4B97FE97FE9FEF7A6BA03
S31500002050000000000000000000000000000000007A
S3150100A100FFFFFFFFFFFFFFFFFFFFFFFFFFFFFFFF58
S3090100A134FFFFFFFF24
S3150100A200FFFDFFFFFFFFFFFFFFFFFFFFFFFFFFFF59
S3150100A210FFFFFFFFFFFFFFFFFFFFFFFFFFFFFFFF47
S3150100A220FFFFFFFFFFFFFFFFFFFFFFFFFFFFFFFF37
S3150100A230FFFFFFFFFFFFFFFFFFFFFFFFFFFFFFFF27
S3150100A240FFFFFFFFFFFFFFFFFFFFFFFFFFFFFFFF17
S3150100A250FFFFFFFFFFFFFFFFFFFFFFFFFFFFFFFF07
S3150100A260FFFFFFFFFFFFFFFFFFFFFFFFFFFFFFFFF7
S3150100A270FFFFFFFFFFFFFFFFFFFFFFFFFFFFFFFFE7
S3150100A280FFF8FFFFFFFFFFFFFFFFFFFFFFFFFFFFDE
S3150100A290FFFFFFFFFFFFFFFFFFFFFFFFFFFFFFFFC7
S3150100A2A0FFFFFFFFFFFFFFFFFFFFFFFFFFFFFFFFB7
S3150100A2B0FFFFFFFFFFFFFFFFFFFFFFFFFFFFFFFFA7
S3150100A2C0FFFFFFFFFFFFFFFFFFFFFFFFFFFFFFFF97
S70500001A815F
